{
  "contractName": "VoteContract",
  "abi": [
    {
      "constant": true,
      "inputs": [
        {
          "name": "",
          "type": "uint256"
        }
      ],
      "name": "proposals",
      "outputs": [
        {
          "name": "name",
          "type": "string"
        },
        {
          "name": "kindNum",
          "type": "uint256"
        },
        {
          "name": "yesVoteCount",
          "type": "uint256"
        },
        {
          "name": "noVoteCount",
          "type": "uint256"
        },
        {
          "name": "voteStart",
          "type": "uint256"
        },
        {
          "name": "voteEnd",
          "type": "uint256"
        },
        {
          "name": "del",
          "type": "uint256"
        },
        {
          "name": "objectId",
          "type": "bytes32"
        }
      ],
      "payable": false,
      "stateMutability": "view",
      "type": "function"
    },
    {
      "constant": false,
      "inputs": [
        {
          "name": "_kind",
          "type": "uint256"
        }
      ],
      "name": "delVoteKind",
      "outputs": [
        {
          "name": "",
          "type": "uint256"
        }
      ],
      "payable": false,
      "stateMutability": "nonpayable",
      "type": "function"
    },
    {
      "constant": true,
      "inputs": [
        {
          "name": "",
          "type": "uint256"
        }
      ],
      "name": "voteKinds",
      "outputs": [
        {
          "name": "name",
          "type": "string"
        },
        {
          "name": "rate",
          "type": "uint256"
        },
        {
          "name": "minTime",
          "type": "uint256"
        },
        {
          "name": "maxTime",
          "type": "uint256"
        },
        {
          "name": "call",
          "type": "uint256"
        },
        {
          "name": "del",
          "type": "uint256"
        }
      ],
      "payable": false,
      "stateMutability": "view",
      "type": "function"
    },
    {
      "constant": true,
      "inputs": [],
      "name": "getVoteKindIndex",
      "outputs": [
        {
          "name": "",
          "type": "uint256"
        }
      ],
      "payable": false,
      "stateMutability": "view",
      "type": "function"
    },
    {
      "constant": true,
      "inputs": [],
      "name": "owner",
      "outputs": [
        {
          "name": "",
          "type": "address"
        }
      ],
      "payable": false,
      "stateMutability": "view",
      "type": "function"
    },
    {
      "constant": true,
      "inputs": [
        {
          "name": "_kind",
          "type": "uint256"
        }
      ],
      "name": "getVoteKind",
      "outputs": [
        {
          "name": "kind",
          "type": "uint256"
        },
        {
          "name": "name",
          "type": "string"
        },
        {
          "name": "rate",
          "type": "uint256"
        },
        {
          "name": "minTime",
          "type": "uint256"
        },
        {
          "name": "maxTime",
          "type": "uint256"
        },
        {
          "name": "call",
          "type": "uint256"
        },
        {
          "name": "status",
          "type": "uint256"
        }
      ],
      "payable": false,
      "stateMutability": "view",
      "type": "function"
    },
    {
      "constant": false,
      "inputs": [
        {
          "name": "_name",
          "type": "string"
        },
        {
          "name": "_rate",
          "type": "uint256"
        },
        {
          "name": "_minTime",
          "type": "uint256"
        },
        {
          "name": "_maxTime",
          "type": "uint256"
        },
        {
          "name": "_call",
          "type": "uint256"
        }
      ],
      "name": "addVoteKind",
      "outputs": [
        {
          "name": "",
          "type": "uint256"
        }
      ],
      "payable": false,
      "stateMutability": "nonpayable",
      "type": "function"
    },
    {
      "constant": true,
      "inputs": [
        {
          "name": "",
          "type": "uint256"
        },
        {
          "name": "",
          "type": "uint256"
        }
      ],
      "name": "voters",
      "outputs": [
        {
          "name": "",
          "type": "address"
        }
      ],
      "payable": false,
      "stateMutability": "view",
      "type": "function"
    },
    {
      "anonymous": false,
      "inputs": [
        {
          "indexed": true,
          "name": "_chairperson",
          "type": "address"
        },
        {
          "indexed": true,
          "name": "_index",
          "type": "uint256"
        },
        {
          "indexed": false,
          "name": "_pName",
          "type": "string"
        },
        {
          "indexed": false,
          "name": "_objectId",
          "type": "bytes32"
        },
        {
          "indexed": false,
          "name": "_kind",
          "type": "uint256"
        },
        {
          "indexed": false,
          "name": "_start",
          "type": "uint256"
        },
        {
          "indexed": false,
          "name": "_end",
          "type": "uint256"
        }
      ],
      "name": "PublishVote",
      "type": "event"
    },
    {
      "anonymous": false,
      "inputs": [
        {
          "indexed": true,
          "name": "_sender",
          "type": "address"
        },
        {
          "indexed": false,
          "name": "_objectId",
          "type": "bytes32"
        },
        {
          "indexed": true,
          "name": "_pin",
          "type": "uint256"
        },
        {
          "indexed": false,
          "name": "_approve",
          "type": "bool"
        }
      ],
      "name": "Vote",
      "type": "event"
    },
    {
      "anonymous": false,
      "inputs": [
        {
          "indexed": false,
          "name": "_kind",
          "type": "uint256"
        },
        {
          "indexed": false,
          "name": "_name",
          "type": "string"
        },
        {
          "indexed": false,
          "name": "_rate",
          "type": "uint256"
        },
        {
          "indexed": false,
          "name": "_minTime",
          "type": "uint256"
        },
        {
          "indexed": false,
          "name": "_maxTime",
          "type": "uint256"
        },
        {
          "indexed": false,
          "name": "_call",
          "type": "uint256"
        }
      ],
      "name": "AddVoteKind",
      "type": "event"
    },
    {
      "anonymous": false,
      "inputs": [
        {
          "indexed": false,
          "name": "_kind",
          "type": "uint256"
        },
        {
          "indexed": false,
          "name": "_name",
          "type": "string"
        }
      ],
      "name": "DeleteVoteKind",
      "type": "event"
    },
    {
      "anonymous": false,
      "inputs": [
        {
          "indexed": true,
          "name": "_owner",
          "type": "address"
        },
        {
          "indexed": true,
          "name": "_newOwner",
          "type": "address"
        }
      ],
      "name": "TransferOwner",
      "type": "event"
    },
    {
      "constant": true,
      "inputs": [
        {
          "name": "_pin",
          "type": "uint256"
        }
      ],
      "name": "isVoteOver",
      "outputs": [
        {
          "name": "",
          "type": "bool"
        }
      ],
      "payable": false,
      "stateMutability": "view",
      "type": "function"
    },
    {
      "constant": false,
      "inputs": [
        {
          "name": "_index",
          "type": "uint256"
        },
        {
          "name": "_objectId",
          "type": "bytes32"
        },
        {
          "name": "_call",
          "type": "uint256"
        }
      ],
      "name": "voteResult",
      "outputs": [
        {
          "name": "",
          "type": "bool"
        },
        {
          "name": "",
          "type": "string"
        }
      ],
      "payable": false,
      "stateMutability": "nonpayable",
      "type": "function"
    },
    {
      "constant": true,
      "inputs": [],
      "name": "getVoteIndex",
      "outputs": [
        {
          "name": "index",
          "type": "uint256"
        }
      ],
      "payable": false,
      "stateMutability": "view",
      "type": "function"
    },
    {
      "constant": true,
      "inputs": [
        {
          "name": "_index",
          "type": "uint256"
        }
      ],
      "name": "getVoteInfoByIndex",
      "outputs": [
        {
          "name": "index",
          "type": "uint256"
        },
        {
          "name": "name",
          "type": "string"
        },
        {
          "name": "kindNum",
          "type": "uint256"
        },
        {
          "name": "yesVoteCount",
          "type": "uint256"
        },
        {
          "name": "noVoteCount",
          "type": "uint256"
        },
        {
          "name": "voteStart",
          "type": "uint256"
        },
        {
          "name": "voteEnd",
          "type": "uint256"
        },
        {
          "name": "status",
          "type": "uint256"
        },
        {
          "name": "objectId",
          "type": "bytes32"
        }
      ],
      "payable": false,
      "stateMutability": "view",
      "type": "function"
    }
  ],
  "bytecode": "0x608060405261000c6100ae565b604051809103906000f080158015610028573d6000803e3d6000fd5b50600260006101000a81548173ffffffffffffffffffffffffffffffffffffffff021916908373ffffffffffffffffffffffffffffffffffffffff160217905550336000806101000a81548173ffffffffffffffffffffffffffffffffffffffff021916908373ffffffffffffffffffffffffffffffffffffffff1602179055506100bd565b60405160e48061150683390190565b61143a806100cc6000396000f3006080604052600436106100ba576000357c0100000000000000000000000000000000000000000000000000000000900463ffffffff168063013cf08b146100bf578063049057731461019e57806319b0e2f7146102845780632a508901146102af5780633f1541d8146102f0578063528591631461033557806352ba89fd146103fe5780637cd3c828146104c75780638da5cb5b146104f2578063c5a248ea14610549578063e37f2e8c14610619578063fba00cbd146106be575b600080fd5b3480156100cb57600080fd5b506100ea60048036038101908080359060200190929190505050610735565b6040518080602001898152602001888152602001878152602001868152602001858152602001848152602001836000191660001916815260200182810382528a818151815260200191508051906020019080838360005b8381101561015c578082015181840152602081019050610141565b50505050905090810190601f1680156101895780820380516001836020036101000a031916815260200191505b50995050505050505050505060405180910390f35b3480156101aa57600080fd5b506101c960048036038101908080359060200190929190505050610824565b604051808a815260200180602001898152602001888152602001878152602001868152602001858152602001848152602001836000191660001916815260200182810382528a818151815260200191508051906020019080838360005b83811015610241578082015181840152602081019050610226565b50505050905090810190601f16801561026e5780820380516001836020036101000a031916815260200191505b509a505050505050505050505060405180910390f35b34801561029057600080fd5b506102996109a0565b6040518082815260200191505060405180910390f35b3480156102bb57600080fd5b506102da600480360381019080803590602001909291905050506109ad565b6040518082815260200191505060405180910390f35b3480156102fc57600080fd5b5061031b60048036038101908080359060200190929190505050610b82565b604051808215151515815260200191505060405180910390f35b34801561034157600080fd5b5061037860048036038101908080359060200190929190803560001916906020019092919080359060200190929190505050610bae565b604051808315151515815260200180602001828103825283818151815260200191508051906020019080838360005b838110156103c25780820151818401526020810190506103a7565b50505050905090810190601f1680156103ef5780820380516001836020036101000a031916815260200191505b50935050505060405180910390f35b34801561040a57600080fd5b5061042960048036038101908080359060200190929190505050610e52565b6040518080602001878152602001868152602001858152602001848152602001838152602001828103825288818151815260200191508051906020019080838360005b8381101561048757808201518184015260208101905061046c565b50505050905090810190601f1680156104b45780820380516001836020036101000a031916815260200191505b5097505050505050505060405180910390f35b3480156104d357600080fd5b506104dc610f35565b6040518082815260200191505060405180910390f35b3480156104fe57600080fd5b50610507610f42565b604051808273ffffffffffffffffffffffffffffffffffffffff1673ffffffffffffffffffffffffffffffffffffffff16815260200191505060405180910390f35b34801561055557600080fd5b5061057460048036038101908080359060200190929190505050610f67565b6040518088815260200180602001878152602001868152602001858152602001848152602001838152602001828103825288818151815260200191508051906020019080838360005b838110156105d85780820151818401526020810190506105bd565b50505050905090810190601f1680156106055780820380516001836020036101000a031916815260200191505b509850505050505050505060405180910390f35b34801561062557600080fd5b506106a8600480360381019080803590602001908201803590602001908080601f0160208091040260200160405190810160405280939291908181526020018383808284378201915050505050509192919290803590602001909291908035906020019092919080359060200190929190803590602001909291905050506110b3565b6040518082815260200191505060405180910390f35b3480156106ca57600080fd5b506106f3600480360381019080803590602001909291908035906020019092919050505061129c565b604051808273ffffffffffffffffffffffffffffffffffffffff1673ffffffffffffffffffffffffffffffffffffffff16815260200191505060405180910390f35b60048181548110151561074457fe5b9060005260206000209060080201600091509050806000018054600181600116156101000203166002900480601f0160208091040260200160405190810160405280929190818152602001828054600181600116156101000203166002900480156107f05780601f106107c5576101008083540402835291602001916107f0565b820191906000526020600020905b8154815290600101906020018083116107d357829003601f168201915b5050505050908060010154908060020154908060030154908060040154908060050154908060060154908060070154905088565b60006060600080600080600080600061083b6112e9565b60048b81548110151561084a57fe5b90600052602060002090600802016101006040519081016040529081600082018054600181600116156101000203166002900480601f0160208091040260200160405190810160405280929190818152602001828054600181600116156101000203166002900480156108fe5780601f106108d3576101008083540402835291602001916108fe565b820191906000526020600020905b8154815290600101906020018083116108e157829003601f168201915b50505050508152602001600182015481526020016002820154815260200160038201548152602001600482015481526020016005820154815260200160068201548152602001600782015460001916600019168152505090508a995080600001519850806020015197508060400151965080606001519550806080015194508060a0015193508060c0015192508060e001519150509193959799909294969850565b6000600480549050905090565b60008060009054906101000a900473ffffffffffffffffffffffffffffffffffffffff1673ffffffffffffffffffffffffffffffffffffffff163373ffffffffffffffffffffffffffffffffffffffff16141515610a0a57600080fd5b8180600180549050118015610a3f57506000600182815481101515610a2b57fe5b906000526020600020906006020160050154145b1515610a4a57600080fd5b6000600184815481101515610a5b57fe5b9060005260206000209060060201600501541415610a995760018084815481101515610a8357fe5b9060005260206000209060060201600501819055505b7f7a28d92f680eb1b03d1f6d27b5ce850d016f5400f4e3c54dc16e100bebfda62883600185815481101515610aca57fe5b90600052602060002090600602016000016040518083815260200180602001828103825283818154600181600116156101000203166002900481526020019150805460018160011615610100020316600290048015610b6a5780601f10610b3f57610100808354040283529160200191610b6a565b820191906000526020600020905b815481529060010190602001808311610b4d57829003601f168201915b5050935050505060405180910390a182915050919050565b6000600482815481101515610b9357fe5b90600052602060002090600802016005015442119050919050565b6000606060008060008060008980600480549050111515610bce57600080fd5b600481815481101515610bdd57fe5b90600052602060002090600802016005015442111515610bfc57600080fd5b60048b815481101515610c0b57fe5b9060005260206000209060080201600101549550600186815481101515610c2e57fe5b90600052602060002090600602016001015494506000600187815481101515610c5357fe5b906000526020600020906006020160050154148015610c91575088600187815481101515610c7d57fe5b906000526020600020906006020160040154145b1515610c9c57600080fd5b896000191660048c815481101515610cb057fe5b90600052602060002090600802016007015460001916141515610cd257600080fd5b600060048c815481101515610ce357fe5b906000526020600020906008020160060154141515610d0157600080fd5b600160048c815481101515610d1257fe5b90600052602060002090600802016006018190555060048b815481101515610d3657fe5b906000526020600020906008020160020154935060048b815481101515610d5957fe5b9060005260206000209060080201600301549250606483850185811515610d7c57fe5b040291508185111560048c815481101515610d9357fe5b9060005260206000209060080201600001808054600181600116156101000203166002900480601f016020809104026020016040519081016040528092919081815260200182805460018160011615610100020316600290048015610e395780601f10610e0e57610100808354040283529160200191610e39565b820191906000526020600020905b815481529060010190602001808311610e1c57829003601f168201915b5050505050905097509750505050505050935093915050565b600181815481101515610e6157fe5b9060005260206000209060060201600091509050806000018054600181600116156101000203166002900480601f016020809104026020016040519081016040528092919081815260200182805460018160011615610100020316600290048015610f0d5780601f10610ee257610100808354040283529160200191610f0d565b820191906000526020600020905b815481529060010190602001808311610ef057829003601f168201915b5050505050908060010154908060020154908060030154908060040154908060050154905086565b6000600180549050905090565b6000809054906101000a900473ffffffffffffffffffffffffffffffffffffffff1681565b600060606000806000806000610f7b611332565b600189815481101515610f8a57fe5b906000526020600020906006020160c06040519081016040529081600082018054600181600116156101000203166002900480601f01602080910402602001604051908101604052809291908181526020018280546001816001161561010002031660029004801561103d5780601f106110125761010080835404028352916020019161103d565b820191906000526020600020905b81548152906001019060200180831161102057829003601f168201915b5050505050815260200160018201548152602001600282015481526020016003820154815260200160048201548152602001600582015481525050905088975080600001519650806020015195508060400151945080606001519350806080015192508060a00151915050919395979092949650565b60008060009054906101000a900473ffffffffffffffffffffffffffffffffffffffff1673ffffffffffffffffffffffffffffffffffffffff163373ffffffffffffffffffffffffffffffffffffffff1614151561111057600080fd5b600160c0604051908101604052808881526020018781526020018681526020018581526020018481526020016000815250908060018154018082558091505090600182039060005260206000209060060201600090919290919091506000820151816000019080519060200190611188929190611369565b506020820151816001015560408201518160020155606082015181600301556080820151816004015560a082015181600501555050507f0a34c207f7a5142596cfc9bc3d52b36be806838b81591806d6f44f37dfd95502600180805490500387878787876040518087815260200180602001868152602001858152602001848152602001838152602001828103825287818151815260200191508051906020019080838360005b8381101561124a57808201518184015260208101905061122f565b50505050905090810190601f1680156112775780820380516001836020036101000a031916815260200191505b5097505050505050505060405180910390a16001808054905003905095945050505050565b6003602052816000526040600020818154811015156112b757fe5b906000526020600020016000915091509054906101000a900473ffffffffffffffffffffffffffffffffffffffff1681565b6101006040519081016040528060608152602001600081526020016000815260200160008152602001600081526020016000815260200160008152602001600080191681525090565b60c0604051908101604052806060815260200160008152602001600081526020016000815260200160008152602001600081525090565b828054600181600116156101000203166002900490600052602060002090601f016020900481019282601f106113aa57805160ff19168380011785556113d8565b828001600101855582156113d8579182015b828111156113d75782518255916020019190600101906113bc565b5b5090506113e591906113e9565b5090565b61140b91905b808211156114075760008160009055506001016113ef565b5090565b905600a165627a7a723058203a359702b2229c3926031b8779898dc4156e219e42ebdfe2b5ea5a5d53927c2300296080604052348015600f57600080fd5b5060c68061001e6000396000f300608060405260043610603f576000357c0100000000000000000000000000000000000000000000000000000000900463ffffffff1680633b3dca76146044575b600080fd5b348015604f57600080fd5b506056606c565b6040518082815260200191505060405180910390f35b60008044426040518083815260200182815260200192505050604051809103902060019004905080915050905600a165627a7a72305820d65de7aeb9e61b4e2631a080f9a4b19d091c6902817770e6e25e5855a6064cbe0029",
  "source": "pragma solidity ^0.4.19;\r\n\r\n//�����\r\ncontract Random{\r\n   function rand() public view returns(uint256) {\r\n        uint256 randomValue = uint256(keccak256(block.difficulty,now));\r\n        return  randomValue;\r\n    } \r\n} \r\n\r\n//������Լ,��ǰ��Լӵ����\r\ncontract OwnerContract{\r\n    \r\n    //��ǰ��Լӵ����\r\n    address public owner;\r\n    \r\n    //��¼ת�ú�Լӵ����\r\n    event TransferOwner(address indexed _owner,address indexed _newOwner);\r\n    \r\n    function OwnerContract() internal {\r\n        owner = msg.sender;\r\n    }\r\n    \r\n    //ֻ�е�ǰ�ĺ�Լӵ����,���ܽ��в���\r\n    modifier onlyOwner(){\r\n        require(msg.sender == owner);\r\n        _;\r\n    }\r\n    \r\n    //�ж���ӵ���ߵĵ�ַ�Ƿ�Ϸ�\r\n    modifier isAddress(address _addr){\r\n        require(_addr != address(0));\r\n        _;\r\n    }\r\n    \r\n    //ת�ú�Լӵ����\r\n    function transferOwner(address _newOwner) internal onlyOwner isAddress(_newOwner){\r\n        //ת�ú�Լӵ����\r\n        owner = _newOwner;\r\n        //��¼ת�ú�Լӵ����\r\n        emit TransferOwner(msg.sender,_newOwner);\r\n    }\r\n}\r\ncontract VoteKindContract is OwnerContract{\r\n    \r\n    //ͶƱ������\r\n    struct VoteKind{\r\n        string name;//ͶƱ��������\r\n        uint rate;//����ͨ������\r\n        uint minTime;//Ĭ�ϵ�ͶƱ���ʱ��\r\n        uint maxTime;//Ĭ�ϵ�ͶƱ�ʱ��\r\n        uint call;//ִ��ͶƱ����ķ������\r\n        uint del;//ɾ�����,0 false,1 true\r\n    }\r\n    \r\n    VoteKind[] public voteKinds;\r\n    \r\n    //��¼\r\n    event AddVoteKind(uint _kind,string _name,uint _rate,uint _minTime,uint _maxTime,uint _call);\r\n    event DeleteVoteKind(uint _kind,string _name);\r\n    \r\n    //��һ����Ч��ͶƱ����\r\n    modifier isVoteKind(uint _kind){\r\n        require(voteKinds.length > _kind && voteKinds[_kind].del ==0);\r\n        _;\r\n    }\r\n    \r\n     //���ͶƱ����\r\n    function addVoteKind(string _name,uint _rate,uint _minTime,uint _maxTime,uint _call) public onlyOwner returns(uint){\r\n        voteKinds.push(VoteKind({name:_name,rate:_rate,minTime:_minTime,maxTime:_maxTime,call:_call,del:0}));\r\n        emit AddVoteKind(voteKinds.length -1,_name,_rate,_minTime,_maxTime,_call);\r\n        return voteKinds.length -1;\r\n\r\n    }\r\n    //ɾ��ͶƱ����\r\n    function delVoteKind(uint _kind) public onlyOwner isVoteKind(_kind) returns(uint){\r\n        if(voteKinds[_kind].del == 0){\r\n            voteKinds[_kind].del = 1;\r\n        }\r\n        emit DeleteVoteKind(_kind,voteKinds[_kind].name);\r\n        return _kind;\r\n    }\r\n    \r\n    //ȡͶƱ��������\r\n    function getVoteKindIndex()public view returns(uint){\r\n         return voteKinds.length;\r\n    }\r\n    \r\n    //ͶƱ��������ȡͶƱ����\r\n    function getVoteKind(uint _kind) public view returns(uint kind,string name,\r\n                        uint rate,uint minTime, uint maxTime,uint call,uint status){\r\n        VoteKind memory voteKind = voteKinds[_kind];                 \r\n        kind = _kind;\r\n        name = voteKind.name;\r\n        rate = voteKind.rate;\r\n        minTime = voteKind.minTime;\r\n        maxTime = voteKind.maxTime;\r\n        call = voteKind.call;\r\n        status = voteKind.del;\r\n    }\r\n    \r\n}\r\n\r\n\r\n//ͶƱ��Լ�ӿ�\r\ncontract  VoteInterface{\r\n    //�ж�ͶƱ�Ƿ����\r\n    function isVoteOver(uint _pin)public constant returns(bool);\r\n    //ȡͶƱ���\r\n    function voteResult(uint _pin,bytes32 _objectId, uint _call)public returns(bool,string);\r\n}\r\n\r\n//ͶƱ��Լ\r\ncontract VoteContract is VoteKindContract,VoteInterface{\r\n    \r\n    Random random = new Random();\r\n    \r\n    //�Ѿ�Ͷ��Ʊ���б�\r\n    //ͶƱ���� => ͶƱ���˻��б�\r\n    mapping(uint => address[]) public voters;\r\n    \r\n    //����ͶƱ����Ľṹ\r\n    struct Proposal{\r\n        string name ;  //ͶƱ���������\r\n        //uint pin; //ͶƱ������,�Զ����ɲ�����\r\n        uint kindNum;//ͶƱ�����͵����\r\n        uint yesVoteCount; //�޳�Ʊ��\r\n        uint noVoteCount;//����Ʊ��\r\n        uint voteStart; //ͶƱ��ʼʱ��\r\n        uint voteEnd; //ͶƱ��������\r\n        uint del;//ͶƱ�Ƿ���,0û����\r\n        //�ڷ���ͶƱʱ,Ҫָ��һ��id,\r\n        bytes32 objectId;//��������Ŀid\r\n    }\r\n    \r\n    //�Ѿ�������ͶƱ����\r\n    //proposalPins Ϊpin�Ŷ�Ӧ�����±��1,\r\n    //��1����Ϊ,mapping�Ŀ�key��ֵΪ0;\r\n    //mapping(uint =>uint) public proposalPins;\r\n    Proposal[] public proposals;\r\n    \r\n    //��¼����ͶƱ\r\n    //������,ҪͶƱ����Ŀ,��ʼʱ��,����ʱ��\r\n    event PublishVote(address indexed _chairperson,uint indexed _index,string _pName\r\n                        ,bytes32 _objectId,uint _kind,uint _start,uint _end);\r\n    //��¼ͶƱ\r\n    event Vote(address indexed _sender, bytes32 _objectId,uint indexed _pin,bool _approve);\r\n    \r\n    \r\n    //�Ƿ��ĳ�������Ѿ�Ͷ��Ʊ\r\n    modifier noVoted(uint _index){\r\n        //ȡ�����е�node,\r\n        address[] memory nodes = voters[_index];\r\n        bool flag = false;\r\n        for(uint i = 0;i < nodes.length;i++){\r\n            if(nodes[i] == msg.sender){\r\n                flag = true;\r\n                break;\r\n            }\r\n        }\r\n        require(!flag);\r\n        _;\r\n    }\r\n  \r\n    //���ͶƱ�Ѿ�����\r\n    modifier isOver(uint _index){\r\n        require(proposals.length > _index);\r\n        require(now > proposals[_index].voteEnd);\r\n        _;\r\n    }\r\n    \r\n    //����һ��ͶƱ\r\n    //�����ַ,��������,\r\n    function createVote(string _pName,bytes32 _objectId,uint _kind,uint _voteTime) internal isVoteKind(_kind) returns(uint){\r\n        //ȡ��ͶƱ������\r\n        VoteKind memory voteKind = voteKinds[_kind];\r\n        //���ͶƱʱ�����ù�С,��ȡĬ����С\r\n        if(_voteTime < voteKind.minTime){\r\n            _voteTime = voteKind.minTime;\r\n        }\r\n        //���ͶƱʱ�����ù���,��ȡĬ�����\r\n        if(_voteTime > voteKind.maxTime){\r\n            _voteTime = voteKind.maxTime;\r\n        }\r\n        //��ʼ��ͶƱ������\r\n        //������,�˻���,ͶƱ�������,ȡ�õ�Ʊ��,��ʼʱ��,����ʱ��\r\n        //uint pin = random.rand();\r\n        //while(proposalPins[pin] != 0){\r\n            //pin = random.rand();\r\n        //}\r\n        //uint time = _voteTime * 60 * 60 * 24;\r\n        uint time = _voteTime * 60;\r\n        proposals.push(Proposal({name:_pName,kindNum:_kind,yesVoteCount:0,noVoteCount:0,\r\n                                             voteStart:now,voteEnd:now + time,del:0,objectId:_objectId}));\r\n                                             \r\n        //proposalPins[pin] = proposals.length;\r\n        emit PublishVote(msg.sender,proposals.length -1,_pName,_objectId,_kind,now,now +time);\r\n        return proposals.length -1;\r\n    }\r\n    \r\n    \r\n    //ͶƱ\r\n    //ͶƱ����:\r\n    //1,ͶƱ��û����\r\n    //2,ͶƱ��,��node�б���\r\n    //3,ͶƱ��,û��Ͷ��Ʊ\r\n    function vote(uint _index,uint _approve) internal noVoted(_index) returns(bool){\r\n        \r\n        //uint pin = _pin;\r\n        //�����һ����Ч��ͶƱ����\r\n        require(proposals.length > _index);\r\n        //uint index = proposalPins[pin] -1;\r\n        require(proposals[_index].del == 0);\r\n        //���ͶƱû�н���\r\n        require(now < proposals[_index].voteEnd);\r\n        //����_pin�ҵ�,�����ͶƱ����\r\n        //ͶƱ\r\n        bool flag = false;\r\n        \r\n        if(_approve == 0){\r\n            //�ѵ�ǰ�û���ͶƱȨ�ظ��跴��Ʊ\r\n            proposals[_index].noVoteCount ++; \r\n            flag = true;\r\n        }else{\r\n            //�ѵ�ǰ�û���ͶƱȨ�ظ����޳�Ʊ\r\n            proposals[_index].yesVoteCount ++; \r\n            flag = true;\r\n        }\r\n        //��¼���˻��Ѿ�ͶƱ\r\n        if(flag){\r\n            bool approve = _approve == 0;\r\n            voters[_index].push(msg.sender);\r\n            emit Vote(msg.sender,proposals[_index].objectId,_index,approve);    \r\n        }\r\n        return flag;\r\n    }\r\n    \r\n    //�鿴ͶƱ�Ƿ����\r\n    function isVoteOver(uint _pin)public view returns(bool){\r\n        return now > proposals[_pin].voteEnd;\r\n    }\r\n    \r\n    //ȡͶƱ���\r\n    function voteResult(uint _index,bytes32 _objectId,uint _call) public isOver(_index) returns(bool,string){\r\n\r\n        uint kindNum = proposals[_index].kindNum;\r\n        //�Ƿ��ܹ�,��׼����\r\n        uint rate = voteKinds[kindNum].rate;\r\n        //�ж������Ƿ���Ч,�������\r\n        require(voteKinds[kindNum].del ==0 && voteKinds[kindNum].call == _call);\r\n        //�ж�aid;\r\n        require(proposals[_index].objectId == _objectId);\r\n        //ֻ��ȡһ��\r\n        require(proposals[_index].del == 0);\r\n        proposals[_index].del = 1;\r\n        //�޳�Ʊ��\r\n        uint yesVote = proposals[_index].yesVoteCount;\r\n        //����Ʊ��\r\n        uint noVote = proposals[_index].noVoteCount;\r\n        \r\n        //����ͨ���� = �޳�Ʊ��/����ͶƱ������\r\n        uint voteRate = yesVote / (yesVote + noVote) *100;\r\n        return (rate <= voteRate,proposals[_index].name);\r\n    }\r\n    \r\n    //ȡͶƱ����\r\n    function getVoteIndex() public view returns(uint index){\r\n        index = proposals.length;\r\n    }\r\n    \r\n    //ȡͶƱ����\r\n    // function getVoteInfoByPin(uint _pin) public view returns(uint index,uint pin,string name,uint kindNum,\r\n    //             uint yesVoteCount,uint noVoteCount,uint voteStart,uint voteEnd,uint status,bytes32 objectId){\r\n        \r\n    //     uint _index = proposalPins[_pin] -1;\r\n        \r\n    //     return getVoteInfoByIndex(_index);\r\n        \r\n    // }\r\n    \r\n    function getVoteInfoByIndex(uint _index) public view returns(uint index,string name,uint kindNum,\r\n                uint yesVoteCount,uint noVoteCount,uint voteStart,uint voteEnd,uint status,bytes32 objectId){\r\n        Proposal memory proposal = proposals[_index];\r\n        index = _index;\r\n        //pin = proposal.pin;\r\n        name = proposal.name;\r\n        kindNum = proposal.kindNum;\r\n        yesVoteCount = proposal.yesVoteCount;\r\n        noVoteCount = proposal.noVoteCount;\r\n        voteStart = proposal.voteStart;\r\n        voteEnd = proposal.voteEnd;\r\n        status = proposal.del;\r\n        objectId = proposal.objectId;\r\n    }\r\n}\r\n\r\n//�ڵ��Լ\r\ncontract NodeManager is VoteContract{\r\n\r\n    //�ڵ�ṹ\r\n    struct NodeStruct{\r\n        bytes32 id;//Ψһ��ʶ\r\n        address addr;//�˻���ַ\r\n        string name;//�ڵ�����\r\n        uint del;//ɾ�����,0��ʾδɾ��\r\n    }\r\n    \r\n    //�ڵ��б�\r\n    //�߼�ɾ��\r\n    //�ڵ��ַ => �ڵ����� �� 1\r\n    mapping(bytes32 => uint) public nodes;\r\n    NodeStruct[] public nodeEntities;\r\n    \r\n    event AddNode(bytes32 indexed _objectId,string _name);\r\n    event DeleteNode(bytes32 indexed _objectId,string _name);\r\n    \r\n    //�ж��Ƿ����Ѵ��ڵĽڵ�\r\n    modifier isNode(bytes32 _nodeId){\r\n        require(nodes[_nodeId] != 0);\r\n        _;\r\n    }\r\n    modifier isNotNode(bytes32 _node){\r\n        require(nodes[_node] == 0);\r\n        _;\r\n    }\r\n    \r\n    //������\r\n    function NodeManager()public{\r\n        //���ͶƱ����\r\n        addVoteKind(\"ADD NODE\",60,1,7,100);\r\n        addVoteKind(\"DELETE NODE\",60,1,7,101);\r\n        //���һ���ڵ�\r\n        bytes32 _objectId = \"000000\";\r\n        string memory name = \"number one\";\r\n        nodeEntities.push(NodeStruct({id:_objectId,addr:msg.sender,name:name,del:0}));\r\n        nodes[_objectId] = nodeEntities.length;\r\n        emit AddNode(_objectId,name);\r\n    }\r\n\r\n    \r\n    //��ӽڵ�\r\n    function addNode(uint _pIndex,bytes32 _objectId,address _node) public isNotNode(_objectId) returns(bool){\r\n        //����ͶƱ�ĺ�Լ���\r\n        //�ж������Ƿ����\r\n        if(isVoteOver(_pIndex)){\r\n            bool result;\r\n            string memory name;\r\n            (result, name) = voteResult(_pIndex,_objectId,100);\r\n            if(result){\r\n                //����ڵ�֮ǰ���ڹ�,���޸�״̬�Իָ��ڵ�\r\n                if(nodes[_objectId] != 0){\r\n                    uint index = nodes[_objectId] -1;\r\n                    if(nodeEntities[index].del != 0){\r\n                        nodeEntities[index].del == 0;\r\n                    }\r\n                    return true;\r\n                }else{\r\n                    //ִ�в���\r\n                    nodeEntities.push(NodeStruct({id:_objectId,addr:_node,name:name,del:0}));\r\n                    nodes[_objectId] = nodeEntities.length;\r\n                    emit AddNode(_objectId,name);\r\n                    return true;\r\n                }\r\n                return false;\r\n            }\r\n        }\r\n        return false;\r\n    }\r\n    \r\n    //ɾ���ڵ�\r\n    function delNode(uint _pIndex,bytes32 _objectId) public isNode(_objectId){\r\n        //����ͶƱ�ĺ�Լ���\r\n        //�ж������Ƿ����\r\n        if(isVoteOver(_pIndex)){\r\n            bool result;\r\n            string memory name;\r\n            (result, name) = voteResult(_pIndex,_objectId,101);\r\n            if(result){\r\n                //ִ�в���\r\n                uint index = nodes[_objectId] -1;\r\n                nodeEntities[index].del = 1;\r\n                emit DeleteNode(_objectId,name);\r\n            }\r\n        }\r\n    }\r\n    \r\n    //����һ��ͶƱ\r\n    function publishVote(bytes32 _nodeId,string _pName,bytes32 _objectId,uint _kind,uint _voteTime) public isNode(_nodeId) returns(uint){\r\n        uint index = nodes[_nodeId] -1;\r\n        require(nodeEntities[index].addr == msg.sender);\r\n        return createVote(_pName,_objectId,_kind,_voteTime);\r\n    }\r\n    //ͶƱ\r\n    function voting(bytes32 _nodeId,uint _pin,uint _approve) public isNode(_nodeId) returns(bool){\r\n        uint index = nodes[_nodeId] -1;\r\n        require(nodeEntities[index].addr == msg.sender);\r\n        return vote(_pin,_approve);\r\n    }\r\n    //ȡ�ڵ�����\r\n    function getNodeIndex() public view returns(uint){\r\n        return nodeEntities.length;\r\n    }\r\n    //ȡ�ڵ���Ϣ\r\n    function getNodeInfoByIndex(uint _index)public view returns(bytes32 id,address addr,string name,uint status){\r\n        NodeStruct memory node = nodeEntities[_index];\r\n        id = node.id;\r\n        addr = node.addr;\r\n        name = node.name;\r\n        status = node.del;\r\n    }\r\n}",
  "sourcePath": "E:\\work\\WorkRepo\\contracts\\NodeManager.sol",
  "compiler": {
    "name": "solc",
    "version": "0.4.23+commit.124ca40d.Emscripten.clang"
  },
  "schemaVersion": "2.0.0",
  "updatedAt": "2018-05-23T07:29:15.574Z"
}